:020000040800F2
:10000000200B002045010008A1050008A3050008F9
:10001000A7050008AB050008AF05000800000000B8
:10002000000000000000000000000000B305000810
:10003000B505000800000000B7050008B905000874
:10004000C1050008C3050008C5050008C70500086C
:10005000C9050008CB050008CD050008CF0500083C
:10006000D1050008D3050008D5050008D70500080C
:10007000D9050008DB050008DD050008DF050008DC
:10008000E1050008E3050008E50500085F01000838
:100090005F0100085F0100085F01000835060008E5
:1000A000EF050008F1050008F3050008F505000854
:1000B000F7050008F9050008FB050008FD05000824
:1000C000FF050008010600080306000805060008F1
:1000D00007060008090600080B0600080D060008C0
:1000E0000F06000811060008130600081506000890
:1000F00017060008190600081B0600081D06000860
:100100001F0600082106000823060008250600082F
:1001100027060008290600082B0600082D060008FF
:100120002F06000831060008330600084B060008B9
:10013000DFF80CD003F0D6F8004800473103000880
:10014000200B00200648804706480047FEE7FEE7F0
:10015000FEE7FEE7FEE7FEE7FEE7FEE7FEE7FEE777
:10016000310200083101000800210020674A1268AE
:1001700042F48032654B1A6000BF644A126802F490
:100180000030491C10B9B1F5A06FF6D15F4A126872
:1001900012F4003F01D0012000E00020012842D1EC
:1001A0005B4A126842F01002594B1A601A461268F4
:1001B00022F003021A601A46126842F002021A6024
:1001C000524A5268514B5A601A4652685A601A464F
:1001D000526842F480625A601A46526822F47C12D5
:1001E0005A601A46526842F4E8125A601A46126877
:1001F00042F080721A6000BF444A126812F0007F19
:10020000FAD0424A526822F00302404B5A601A4622
:10021000526842F002025A6000BF3C4A526802F043
:100220000C02082AF9D1704710B5FFF79DFF10BDE9
:1002300010B53648006840F00100344908600846AF
:1002400040683449084031494860084600683249EE
:1002500008402E4908600846006820F480200860A5
:100260000846406820F4FE0048604FF41F00886094
:10027000FFF7DAFF4FF000602849086010BD10B5A5
:10028000002100200022214B5B6803F00C0121B10A
:10029000042906D0082928D107E0214B214C2360EE
:1002A00027E01F4B1F4C236023E0184B5B6803F4CF
:1002B0007010164B5B6803F48032022303EB90400E
:1002C00022B9194B4343174C23600DE00F4B5B6879
:1002D00013F4003F04D0144B4343124C236003E05B
:1002E0000F4B43430F4C236003E00D4B0D4C236039
:1002F00000BF00BF054B5B68C3F303130B4CE15C0D
:10030000084B1B68CB40074C236010BD0010024017
:10031000002002400000FFF8FFFFF6FE08ED00E0BD
:1003200000127A000000002000093D0004000020B7
:100330001CB501F0EFFD01F08BFF4FF6FF7002F0EE
:100340000DFA00F020FA00BF02F078FDC82001F09D
:1003500017FE4AE08348007AF0B382480068824979
:10036000086080484068814908607F4800684B28E1
:100370001ADB7D4800685F2816DC0846006878288C
:1003800012DB08460068A6280EDC0421784800F03D
:1003900092FE002073490872C82001F0F1FD04218B
:1003A000734800F08AFE21E06F48006873281CDB68
:1003B0006D480068872818DC6C480068782814DBD2
:1003C0006A480068A62810DC0421694800F073FE22
:1003D00000206449087200E007E0C82001F0D0FD69
:1003E0000421634800F069FEA3E0B3E74FF6FF7015
:1003F00002F0B4F95F48006883B25F480068C2B297
:100400005E48006881B25E480068C0B202F06DFAD2
:100410004FF6FF730022CDE900233223D2220321BD
:10042000242002F0E8FA83E04E48007A58B1002018
:100430004C490872084600684B49086049484068C2
:100440004A49086004E000204749086047490860BD
:100450004C4903C902F081FE04464FF48272D22156
:1004600002F042FB4848006802F0B2FB3F480268D5
:100470003D4801684448006802F04CFCA0B10421EA
:100480003B4800F018FE41480068401C3F490860A6
:100490000846006802F0A9FC022001F071FD042169
:1004A000334800F00AFE03E03848006802F09DFC83
:1004B00037480068401C3649086036480068401CD0
:1004C000344908600846006807280AD10022324BE8
:1004D0002C4903C902F03BFE2A4A03C200202D49E1
:1004E000086000221346274903C902F055FE00D1D7
:1004F0002EE027480068322817DB2348006802F006
:10050000A6FB002022490860244908680968491CA4
:10051000224B196002F074FD02F068FD092190FB86
:10052000F1F201FB1200184908600A2001F028FDD1
:100530007AE74FF6FF7002F011F902F0E4FC06E0F2
:100540000848007A18B1002006490872FCE6F7E76F
:100550004FF6FF7002F002F90C48006802F09AFCB6
:1005600000201CBD14070020480000204C00002083
:100570000018014024000020200000201C00002062
:10058000180000202800002034000020380000203F
:100590003C000020400000200000F03F440000200C
:1005A000704700BFFEE700BFFEE700BFFEE700BFE9
:1005B000FEE770477047704710B501F011FD10BDA0
:1005C0007047704770477047704770477047704773
:1005D0007047704770477047704770477047704763
:1005E0007047704770477047704770477047704753
:1005F0007047704770477047704770477047704743
:100600007047704770477047704770477047704732
:100610007047704770477047704770477047704722
:100620007047704770477047704770477047704712
:100630007047704710B5802001F04AFC20B100F0EF
:10064000BBF9802001F055FC10BD704708B50121B1
:10065000082000F0BAFB4FF48050ADF800000320F2
:100660008DF8020010208DF803006946E24800F082
:1006700077FC08BD08B50121080200F0A6FB802028
:10068000ADF8000048208DF803006946DB4800F013
:1006900067FC08BD1CB50721062000F075FD802011
:1006A000009000208DF804000C208DF8050001203A
:1006B0008DF80600684601F09EFB1CBD08B50021C0
:1006C0004FF0006000F0DEF94FF4A06000F09AF9FE
:1006D00017208DF8000000208DF801008DF8020031
:1006E00001208DF80300684600F091F908BD03462B
:1006F00000BFA3F1C802C2EB0210020140F68860FD
:1007000092FBF0F081B2002901DDF02901DD00202B
:1007100070470846FCE7034600BFA3F5827202EB70
:10072000820082014FF4616092FBF0F081B20029F7
:1007300002DDB1F5A07F01DD002070470846FCE72F
:10074000704708B50121042000F03FFB4FF4204022
:10075000ADF8000003208DF8020010208DF8030092
:100760006946A54800F0FCFB4FF48040ADF800005E
:1007700003208DF8020048208DF8030069469E484A
:1007800000F0EEFB08BD10B5FFF760FF08219A48A6
:1007900000F091FCFFF7D5FFFFF7D2FF4FF40041C7
:1007A000954800F088FC4FF40051934800F085FC18
:1007B000FFF760FFFFF76EFFFFF780FF0020904913
:1007C00008604860087210BD10B508218A4800F022
:1007D00072FC4FF40041884800F06DFC4FF400516A
:1007E000854800F06AFC0821834800F066FC10BDD3
:1007F00010B504462CB14FF400417F4800F05BFC7B
:1008000004E04FF400417C4800F057FC10BD70B587
:100810000646002514E0C5F1070046FA00F000F096
:1008200001042046FFF7E4FF4FF40051724800F046
:1008300042FC4FF40051704800F03FFC681CC5B208
:10084000082DE8DB70BD70B500254FF400516A48F3
:1008500000F031FC4FF40051674800F02EFC0024FA
:1008600015E06804050C4FF40051634800F023FCC8
:100870004FF48041604800F004FC08B1681C85B268
:100880004FF400515C4800F018FC601CC4B20C2C02
:10089000E7DB00240BE04FF40051574800F00BFC5D
:1008A0004FF40051544800F008FC601CC4B2032C03
:1008B000F1DB284670BD2DE9FF410746884600243C
:1008C0001CE0FFF781FF9020FFF7A1FFFFF7BBFFC0
:1008D0002DF814000821484800F0EDFBFFF774FFE5
:1008E000D020FFF794FFFFF7AEFF02A921F8140014
:1008F0000821414800F0DFFB601C84B2042CE0DBDF
:1009000000241AE0042514E002A830F8150002A91A
:1009100031F8141088420ADD02A830F8156030F86A
:10092000150002A921F8140002A820F81560681C1F
:1009300085B2032DE8DB601C84B2042CE2DB0024CA
:1009400015E004250FE03DF815003DF8141088422D
:1009500007DD3DF815603DF815002DF814002DF861
:100960001560681C85B2032DEDDB601C84B2042C7D
:10097000E7DBBDF80A00BDF80C10084440103880D1
:10098000BDF80200BDF80410084440F6FF71A1EB69
:100990006000A8F80000BDE8FF81024601F10A00EE
:1009A000824201DD0020704702F10A00814201DD30
:1009B0000020F8E70120F6E77CB5694601A8FFF7BB
:1009C0007AFFBDF80400FFF792FE0446BDF8000070
:1009D000FFF7A1FE0546012C0CD9012D0AD9EF2CF9
:1009E00008D2B5F59F7F05D8054804604560012011
:1009F000034908727CBD0000000C0140002001404A
:100A00001407002036490143364A1160704770B51B
:100A1000002100230F22C4784CB3324C246804F424
:100A2000E064C4F5E0644FEA1421C1F1040322FA42
:100A300001F2447804FA03F1847804EA020444EAF7
:100A400001014FEA0111284C0678A155047804F001
:100A50001F054FF0010404FA05F405784FEA651507
:100A60004FF0E02606EB8505C5F8004109E0047863
:100A700004F01F050124AC401C4D0678761145F8A2
:100A8000264070BD1A4A0A4002431A4B1A6070474A
:100A900041B1194A126842EA00024FF0E023C3F85C
:100AA000102D07E0144A126822EA00024FF0E023FA
:100AB000C3F8102D7047042808D14FF0E0210969D0
:100AC00041F004014FF0E022116107E04FF0E02116
:100AD000096921F004014FF0E02211617047000024
:100AE0000000FA050CED00E000E400E080E100E029
:100AF00080FFFF1F08ED00E010ED00E0DB4800681C
:100B000040F00100D949086008464068D8490840CB
:100B1000D649486008460068D6490840D34908606D
:100B20000846006820F4802008600846406820F4E9
:100B3000FE0048604FF41F0088607047CB49096889
:100B400021F48031C94A11601146096821F48021DD
:100B50001160B0F5803F03D0B0F5802F0ED106E0D4
:100B6000C249096841F48031C04A116007E0BF49B9
:100B7000096841F4A021BD4A116000E000BF00BF38
:100B8000704710B501460022002300204A11012AB7
:100B900002D1B64C236806E0022A02D1B34C236A84
:100BA00001E0B24C636A01F01F02012494401C4230
:100BB00001D0012000E0002010BD70B50024002508
:100BC000002600BF3120FFF7DCFF0646641CB4F5A9
:100BD000A06F01D0002EF5D03120FFF7D2FF08B171
:100BE000012500E00025284670BD014600209F4AEF
:100BF000106820F0F80040EAC100106070479E497C
:100C00000860704702460020984B586820F47C101A
:100C100042EA01031843954B5860704796490866AD
:100C2000704701460020914A506820F003000843B5
:100C3000506070478D48406800F00C0070470146D6
:100C400000208A4A506820F0F00008435060704746
:100C500001460020854A506820F4E0600843506057
:100C6000704701460020814A506820F4605040EAF5
:100C7000C1005060704729B17C4A527A02437B4BD5
:100C80005A7206E0794A527AC343DBB21A40774B74
:100C90005A72704779490860704701460020734ACC
:100CA000506820F440400843506070470021744A67
:100CB00011706E4A82F82010012802D0042808D151
:100CC00003E001216E4A117004E005216C4A1170A5
:100CD00000E000BF00BF70476A4908607047634981
:100CE000096A0143614A11627047674908607047A9
:100CF00030B500210022002400235C4D6D6805F012
:100D00000C0121B1042905D0082923D105E05F4D4C
:100D1000056022E05D4D05601FE0544D6D6805F4EF
:100D20007012524D6D6805F48034022505EB924235
:100D30001CB9574D554305600BE04C4D6D6815F4DB
:100D4000003F03D0524D5543056002E04F4D5543DF
:100D5000056002E04D4D056000BF00BF434D6D686A
:100D600005F0F00109094B4D6B5C0568DD404560FD
:100D70003E4D6D6805F4E061090A464D6B5C4568BF
:100D8000DD408560394D6D6805F46051C90A414DFB
:100D90006B5C4568DD40C560344D6D6805F44041CD
:100DA000890B3D4D6B5CC568B5FBF3F5056130BD46
:100DB00029B12E4A526902432C4B5A6104E02B4A56
:100DC00052698243294B5A61704729B1274A926977
:100DD0000243264B9A6104E0244A92698243234BE2
:100DE0009A61704729B1214AD26902431F4BDA61E7
:100DF00004E01E4AD26982431C4BDA61704729B174
:100E00001A4AD2680243194BDA6004E0174AD268E2
:100E10008243164BDA60704729B1144A12690243C3
:100E2000124B1A6104E0114A126982430F4B1A6196
:100E300070471A49086070470F49C86470470B49EA
:100E4000C87170470948406A40F08070074948629D
:100E5000704701460020054A92680A4201D00120ED
:100E600000E000207047014988727047001002407E
:100E70000000FFF8FFFFF6FE00004242D8004242A9
:100E800020100240800442423C04424200127A0098
:100E900000093D0050000020600000204004424254
:100EA00010B50446CA48844208D101210420FFF746
:100EB000A6FF00210420FFF7A2FF46E0C5488442B8
:100EC00008D101210820FFF79AFF00210820FFF731
:100ED00096FF3AE0C048844208D101211020FFF774
:100EE0008EFF00211020FFF78AFF2EE0BB488442CE
:100EF00008D101212020FFF782FF00212020FFF7E9
:100F00007EFF22E0B648844208D101214020FFF74D
:100F100076FF00214020FFF772FF16E0B1488442BF
:100F200008D101218020FFF76AFF00218020FFF710
:100F300066FF0AE0AC48844207D101218015FFF723
:100F40005EFF0021A015FFF75AFF10BD10B501216B
:100F50000846FFF754FF00210120FFF750FF10BDA6
:100F60002DE9F04102460025002600200023002440
:100F7000002791F803C00CF00F0591F803C01CF096
:100F8000100F03D091F802C04CEA0505B1F800C07B
:100F90001CF0FF0F31D0146800202BE04FF0010C43
:100FA0000CFA00F3B1F800C00CEA03069E4220D10F
:100FB00083004FF00F0C0CFA03F7BC4305FA03FC57
:100FC0004CEA040491F803C0BCF1280F06D14FF09D
:100FD000010C0CFA00FCC2F814C00AE091F803C03E
:100FE000BCF1480F05D14FF0010C0CFA00FCC2F81F
:100FF00010C0401C0828D1D31460B1F800C0BCF167
:10100000FF0F34DD546800202EE000F1080C4FF093
:10101000010808FA0CF3B1F800C00CEA03069E427E
:1010200021D183004FF00F0C0CFA03F7BC4305FAF3
:1010300003FC4CEA040491F803C0BCF1280F05D16D
:1010400000F1080C08FA0CF8C2F8148091F803C0FB
:10105000BCF1480F07D100F1080C4FF0010808FA65
:101060000CF8C2F81080401C0828CED35460BDE8AC
:10107000F0814FF6FF710180022181700421C1705F
:1010800070470246002093680B4201D0012000E027
:10109000002070470146886880B2704702460020F1
:1010A000D3680B4201D0012000E0002070470146C8
:1010B000C86880B2704701617047416170470AB1EA
:1010C000016100E041617047C16070474FF48032B8
:1010D0000A43826181618261826982697047024646
:1010E0000020424B18684FF68073184040EA021007
:1010F00008433E4B186070473D49C8617047F0B5E2
:101100000A46002300240021002500F00046B6F125
:10111000004F02D1354EF16901E0344E7168C0F3E1
:10112000034583B200F44016B6F5401F08D121F004
:1011300070612E4E766826F070662C4F7E6012E04D
:1011400000F48016B6F5801F06D1032606FA05F4D2
:10115000A14341F0706106E0460D360103FA06F640
:10116000B14341F0706122B1460D360103FA06F633
:10117000314300F00046B6F1004F02D11B4EF16141
:1011800001E01A4E7160F0BD30B500228B071C0FD4
:101190000F2303FA04F2154B08338C1053F8243054
:1011A0009343124C08348D1044F8253023468C109C
:1011B00053F824308C07240F00FA04F423430B4C1B
:1011C00008348D1044F8253030BD0A490860704756
:1011D00000080140000C01400010014000140140D3
:1011E00000180140001C01400020014000000140A7
:1011F00000002042DC00204230B943F2DB014FF016
:10120000204242F8201005E043F2D2014FF0204284
:1012100042F820106FF07042411C4FF0204343F819
:10122000212011461A4602EB8002C2F804117047D1
:1012300010280AD118214FF0204211664021516632
:101240004FF0FC319166D16610E01821F84A116028
:101250004FF040014FF02042C2F884104FF0FC31B3
:10126000F44A11604FF02042C2F88C1070471820E9
:10127000F14908604FF000004FF02041C1F8A40090
:101280004FF0FC30ED49086001F10401086001F104
:10129000040108607047D0E901121143C26811438C
:1012A000026911434269114382691143C2691143C2
:1012B000026A1143426A1143826A1143C26A1143AE
:1012C000026B11434FF02043026843F822108168FB
:1012D000082908D11A46016852F8211041F040014E
:1012E000026843F82210416B0968426B526841EA78
:1012F0000211426B926841EA0221426BD26841EAD4
:101300000241426B126941EA0251426B526941EA61
:101310000261426B926911430268521C4FF02043F4
:1013200043F82210C16AB1F5804F1AD1816B096868
:10133000826B526841EA0211826B926841EA022193
:10134000826B126941EA0251826B526941EA026181
:10135000826B92691143026803EB8202C2F80411A6
:1013600008E06FF070414FF02043026803EB820207
:10137000C2F80411704730B50021002200234468F0
:1013800044F0080485682C43C5682C4305692C4348
:10139000456944EA4524856944EA4531C4692468BD
:1013A000C5696D6844EA0524C569AD6844EA054429
:1013B000C569ED6844EA0562046A2468056A6D68D7
:1013C00044EA0524056AAD6844EA0544056AED6807
:1013D00044EA05630468102C05D14FF020442166CF
:1013E000A266E36607E0924C21604FF02044C4F807
:1013F0008820934C236030BD016841F010014268A1
:1014000041EA4221826841EA42318B4A1160C16857
:101410000968C268526841EA0221C268926841EADA
:101420000241C268D26841EA0261844A11600169DE
:1014300009680269526841EA02210269926841EA38
:1014400002410269D26841EA02617E4A1160416943
:1014500009684269526841EA02214269926841EA98
:1014600002414269D26841EA02614FF02042C2F86B
:10147000B0107047002101600221416000218160AD
:10148000C160016141618161C16101624FF48051BC
:101490004162490081620021C16201630F21426BF8
:1014A0001160426B5160FF21426B91600F21426BD2
:1014B000D160426B1161426B51610021426B9161BD
:1014C0000F21826B1160826B5160FF21826B9160F2
:1014D0000F21826BD160826B1161826B516100219F
:1014E000826B916170471021016000214160816031
:1014F000C160016141618161FC21C2691160C26901
:101500005160C2699160C269D160026A1160026A69
:101510005160026A9160026AD160704700210160E7
:1015200041608160FC21C2681160C2685160C2687C
:101530009160C268D16002691160026951600269FC
:1015400091600269D16042691160426951604269EB
:1015500091604269D160704751B14FF0204252F81A
:10156000202042F001024FF0204343F8202009E000
:101570004FF0204252F82020334B1A404FF02043C6
:1015800043F82020704799B1102808D14FF020422D
:10159000126E42F004024FF020431A661DE0244A06
:1015A000126842F004024FF02043C3F8802014E098
:1015B000102809D14FF02042126E234BDB1E1A4037
:1015C0004FF020431A6608E0194A12681F4B02EADE
:1015D00003024FF02043C3F88020704740B1164902
:1015E000096841F004014FF02042C2F8A01008E061
:1015F00011490968154A01EA02014FF02042C2F878
:10160000A010704799B1102808D14FF02042126EF7
:1016100042F040024FF020431A662DE0044A12685F
:1016200042F040024FF02043C3F8802024E00FE056
:10163000800000A0880000A0A00000A0A80000A0DA
:101640008C0000A0AC0000A0FEFF0F00FBFF0F000D
:10165000102808D14FF02042126E684B1A404FF00C
:1016600020431A6608E0664A1268644B02EA0302E5
:101670004FF02043C3F88020704701460020102916
:1016800003D14FF02042506F01E05E4A106870476E
:1016900010B5F2B1102807D14FF020435B6E0B4319
:1016A0004FF02044636632E0B0F5807F08D1564B9E
:1016B0001B6843EA01034FF02044C4F8843026E05D
:1016C000524B1B6843EA01034FF02044C4F8A43096
:1016D0001DE0102807D14FF020435B6E8B434FF085
:1016E0002044636613E0B0F5807F08D1464B1B6849
:1016F00023EA01034FF02044C4F8843007E0434B51
:101700001B6823EA01034FF02044C4F8A43010BD45
:1017100010B5024600200023102A03D14FF02044C8
:10172000636E07E0B2F5807F02D1374C236801E099
:10173000364C23680B4201D0012000E0002010BD90
:10174000102807D14FF02042526E8A434FF02043B9
:101750005A6613E0B0F5807F08D12B4A126822EA5E
:1017600001024FF02043C3F8842007E0274A1268A3
:1017700022EA01024FF02043C3F8A420704770B55D
:1017800002460020002300240025102A03D14FF038
:101790002046736E07E0B2F5807F02D11A4E33689F
:1017A00001E01A4E336803EA010403EAD10514B1DB
:1017B0000DB1012000E0002070BD102808D14FF0CD
:1017C0002042526E22EAD1024FF020435A6613E0C3
:1017D000B0F5807F08D10C4A126822EAD1024FF09E
:1017E0002043C3F8842007E0084A126822EAD102A5
:1017F0004FF02043C3F8A42070470000BFFF0F0044
:10180000800000A0940000A0840000A0A40000A01C
:1018100001460020FF4A106800F0380008431060BD
:101820007047FC49096821F00801FA4A1160114625
:101830000968014311607047F649096821F01001F9
:10184000F44A116011460968014311607047F2487B
:10185000F0494860F14848607047EF48ED494860FA
:10186000EE4848607047EB48006940F08000E94965
:1018700008617047E748006940F08000E549086169
:1018800070470420E349C96801F00101012901D131
:1018900001200EE0DF49C96811F0040F01D00220D9
:1018A00007E0DC49C96811F0100F01D0032000E007
:1018B0000420704700B502460423FFF7E2FF034609
:1018C00003E0FFF7DEFF0346521E012B01D1002A81
:1018D000F7D102B90523184600BD30B504460425EA
:1018E0004FF43020FFF7E6FF0546042D17D1C94815
:1018F000006940F00200C749086108464461006978
:1019000040F0400008614FF43020FFF7D3FF054658
:10191000C048006941F6FD710840BE49086128468B
:1019200030BD10B504244FF43020FFF7C3FF044648
:10193000042C16D1B748006940F00400B54908618D
:101940000846006940F0400008614FF43020FFF77E
:10195000B1FF0446AF48006941F6FB710840AD494C
:101960000861204610BD00B502460423FFF789FF39
:10197000034603E0FFF785FF0346521E012B01D10A
:10198000002AF7D102B90523184600BD10B504247A
:101990004FF43020FFF7E7FF0446042C16D19D4892
:1019A000006940F004009B4908610846006940F066
:1019B000400008614FF43020FFF7D5FF04469548FA
:1019C000006941F6FB71084092490861204610BD4C
:1019D00000209049C96911F0020F01D0012000E0F8
:1019E0000020704730B5A5250424FFF7F1FF00B1B2
:1019F00000254FF43020FFF75DFF0446042C3BD157
:101A0000854884498860854888600846006940F0B8
:101A1000200008610846006940F0400008614FF46A
:101A20003020FFF747FF0446042C1CD17948006999
:101A300041F6DF710840774908610846006940F0C7
:101A400010000861764805804FF40050FFF732FF20
:101A50000446052C10D06F48006941F6EF7108402C
:101A60006C49086108E0052C06D06A48006941F617
:101A7000EF71084067490861204630BDF0B5044663
:101A80000D4604260027F002FFF714FF0646042E39
:101A900022D16048006940F001005E49086125805C
:101AA000F002FFF707FF0646042E0ED1A71C280CF4
:101AB0003880F002FFF7FEFE06465648006941F600
:101AC000FE7108405349086106E05248006941F63A
:101AD000FE7108404F4908613046F0BD70B50446BC
:101AE0000D460426F002FFF7E5FE0646042E11D14E
:101AF0004848006940F00100464908612580F0022D
:101B0000FFF7D8FE06464348006941F6FE710840DB
:101B100040490861304670BD70B505460E46042444
:101B2000E002FFF7C7FE0446042C17D13A483949B2
:101B300088603A4888600846006940F010000861F3
:101B40002E80E002FFF7B6FE0446052C06D0314891
:101B5000006941F6EF7108402E490861204670BDCA
:101B60002DE9F04304464FF6FF763746B046B146BE
:101B70000425E443E6B2C4F30727C4F307484FEA59
:101B80001469E802FFF796FE0546042D3ED122486F
:101B900020498860214888600846006940F01000AC
:101BA0000861FF2E06D01F4806804FF40050FFF753
:101BB00081FE0546042D08D1FF2F06D01A48078064
:101BC0004FF40050FFF776FE0546042D09D1B8F119
:101BD000FF0F06D01548A0F80C88E802FFF76AFE50
:101BE0000546042D09D1B9F1FF0F06D00F48A0F822
:101BF0000E98E802FFF75EFE0546052D06D0054863
:101C0000006941F6EF710840024908612846BDE8C5
:101C1000F08300000020024023016745AB89EFCD2F
:101C200000F8FF1F08F8FF1F0AF8FF1F00F0FF1F52
:101C300030B5054604244FF43020FFF73BFE044640
:101C4000042C41D15F48604988606048886008463C
:101C5000006940F0200008610846006940F040003B
:101C600008614FF43020FFF725FE0446042C22D1F2
:101C70005548006941F6DF7108405349086108463C
:101C8000006940F0100008611DB100205049088033
:101C900002E0A5204E4908804FF43020FFF70AFEED
:101CA0000446052C10D04848006941F6EF71084001
:101CB0004549086108E0052C06D04348006941F613
:101CC000DF71084040490861204630BDF0B5054647
:101CD0000E46174604243B483B4988603B488860D1
:101CE000E002FFF7E7FD0446042C19D136480069ED
:101CF00040F010003449086147F0F80030432843B1
:101D0000344908804FF40050FFF7D4FD0446052CF9
:101D100006D02D48006941F6EF7108402A49086154
:101D20002046F0BD2848C069800870472648006AF0
:101D3000704700202449096811F0200F01D00120CC
:101D400000E00020704729B11F4A126902431E4B70
:101D50001A6104E01C4A126982431B4B1A617047E6
:101D600001460020012908D1174AD26912F0010F5B
:101D700001D0012008E0002006E0134AD2680A42A0
:101D800001D0012000E0002070470F49C860704773
:101D900004200D49C96801F00101012901D1012088
:101DA0000EE00949C96811F0040F01D0022007E0D4
:101DB0000549C96811F0100F01D0032000E004208C
:101DC000704700002301674500200240AB89EFCD3A
:101DD00000F8FF1F02F8FF1F00204749086047492D
:101DE000C1F804044649086001F10401086045484F
:101DF00045490860704700213F498279DAB33F4A7C
:101E0000D2F8002403689A433C4BC3F800241A46D6
:101E1000D2F8042403689A4301F104031A6002799A
:101E200011440A68036842EA03020A60334AD2F89E
:101E30000824036822EA0302304BC3F808241A4638
:101E4000D2F80C24036822EA0302304B1A6042796C
:101E5000102A11D1294AD2F8082403681A43274BC3
:101E6000C3F808241A46D2F80C2403681A43234BFB
:101E7000C3F80C240EE007E01F49427911440A68B8
:101E800003681A430A6005E0027911440A6803688E
:101E90009A430A6070470021016001710C21417171
:101EA0000021817170471A49096841EA0001134A0B
:101EB000C2F81014704701460020134A12680A4203
:101EC00001D0012000E0002070470F4908607047F2
:101ED000014600200022084B1B6803EA0102074B61
:101EE000D3F814340B4202D00AB1012000E00020E4
:101EF0007047054908607047000401400000014038
:101F000008040140FFFF0F00140401400C040140CD
:101F10001004014010B5FEF7F1FD4FF48030FEF7DC
:101F20000DFE00BF3120FEF72CFE0028FAD0102055
:101F3000FFF782FC0220FFF76BFC0020FEF77FFE1C
:101F40000020FEF78EFE4FF48060FEF781FE4FF416
:101F5000E0114FF48030FEF755FE0120FEF75EFEE3
:101F600000BF3920FEF70DFE0028FAD00220FEF750
:101F700058FE00BFFEF75EFE0828FBD110BD000032
:101F800010B504466FF00400FEF795FD00BF194838
:101F9000B0F1807F00D31BE01648401E4FF0E021D7
:101FA000486100BF4817002805DA0F2000011249D8
:101FB0000B22885404E00F20000110494A1788546E
:101FC00000BF00204FF0E02188610720086100BFBA
:101FD0000B48046000BF0A4800680028FBD110BD10
:101FE0000748006820B106480068401E04490860A0
:101FF000704700004019010018ED00E000E400E027
:10200000640000204FF0D8414880704722204FF0F4
:10201000D841088070474FF0D842108051807047F7
:1020200010B503460C46FF480088A0F509419939D0
:1020300005D0FC480088A0F51941193908D1194686
:102040004E20FFF7E8FF21464F20FFF7E4FF07E0AF
:1020500019462020FFF7DFFF21462120FFF7DBFF95
:1020600010BD70B504460D461646F02C02DCB5F5E1
:10207000B47F00DD70BD2946E0B2FFF7D1FFFFF766
:10208000C5FF3046FFF7BEFF00BFF3E72DE9F04F75
:1020900006460F4690469946DDF824A00024002508
:1020A000A34600BF24E0A8F1200000EB400004EBB1
:1020B000C000DD4931F810B0002515E04BFA05F0FD
:1020C00010F0010F07D07A1991B2321990B24A4636
:1020D000FFF7C7FF06E07A1991B2321990B2524663
:1020E000FFF7BFFF681C85B2102DE7DB601C84B2D0
:1020F000182CD8DBBDE8F08F2DE9F84380460C465C
:1021000015469946002600270CE0CDF8009022786D
:102110002B4639464046FFF7B9FF07F1100087B25A
:10212000641C761C207808B1012000E00020282ED5
:1021300001D2012100E000210842E6D1BDE8F88388
:1021400030B5014601F01F04C1F34513CA0AE50288
:1021500005EB43151544A8B230BD01464FF0D840F9
:10216000018040884FF0D8404088704700B597B054
:10217000002001900290022003900020049005901E
:102180000690079006200890002009900A901020E1
:102190000B9000200C900E900F9010904FF48050F8
:1021A0001190002012901390149001A81590169091
:1021B00008A8FFF770F801210620FFF7CDF917B046
:1021C00000BD08B501210802FEF7F2FD012140F231
:1021D000E110FEF7FAFD4CF23370ADF80000032079
:1021E0008DF8020018208DF8030069468F48FEF72D
:1021F000B7FE4FF6C070ADF8000069468C48FEF798
:10220000AFFE012240218A48FEF759FF0120ADF8B8
:10221000000069468748FEF7A3FE4FF48050ADF8F2
:10222000000069468448FEF79BFE0420ADF80000DC
:1022300003208DF8020010208DF8030069467C48C9
:10224000FEF78EFE002204217948FEF738FF08BD14
:1022500010B5FFF7B6FFFFF789FF0020FFF77DFFFE
:102260007049088008460088A0F5134125397DD1C2
:102270000520FFF785FE0520FFF782FE0121FF20E4
:10228000FFF7C9FE0821F320FFF7C5FE4FF4807168
:102290000120FFF7C0FE4FF4E0610220FFF7BBFE14
:1022A00041F230010320FFF7B6FE40F20231082070
:1022B000FFF7B1FE40F207210820FFF7ACFE002136
:1022C0000920FFF7A8FE00210A20FFF7A4FE002145
:1022D0001020FFF7A0FE05211120FFF79CFE002132
:1022E0001220FFF798FE00211320FFF794FE05202F
:1022F000FFF746FE41F2B0211020FFF78CFE0520CB
:10230000FFF73EFE07211120FFF785FE0520FFF7AE
:1023100037FE8B211220FFF77EFE0520FFF730FEEF
:102320004FF4B8511320FFF776FE0520FFF728FE83
:1023300022212920FFF76FFE00213020FFF76BFEDE
:1023400040F207713120FFF766FE40F2055132205E
:10235000FFF761FE40F207113520FFF75CFE082110
:102360003620FFF758FE0021372000E043E0FFF75A
:1023700052FE40F202213820FFF74DFE4FF48371E8
:102380003920FFF748FE40F202213C20FFF743FED0
:102390004FF481613D20FFF73EFE0520FFF7F0FD81
:1023A00000215020FFF737FEEF215120FFF733FEC9
:1023B00000215220FFF72FFE40F23F115320FFF77C
:1023C0002AFE4FF41C516020FFF725FE01216120F9
:1023D000FFF721FE33219020FFF71DFE0B212B205C
:1023E000FFF719FE40F233110720FFF714FE052016
:1023F000FFF7C6FDB1E10B480088A0F51341203975
:102400007ED10520FFF7BCFD4FF40041E520FFF72A
:1024100002FE01210020FFF7FEFD4FF48071012034
:102420000CE000000C070020863300080014014077
:1024300000180140001C014000200140FFF7EBFDA7
:102440004FF4E0610220FFF7E6FD41F23001032086
:10245000FFF7E1FD00210420FFF7DDFD40F202213E
:102460000820FFF7D8FD00210920FFF7D4FD002147
:102470000A20FFF7D0FD00210C20FFF7CCFD002142
:102480000D20FFF7C8FD00210F20FFF7C4FD00213C
:102490001020FFF7C0FD00211120FFF7BCFD002137
:1024A0001220FFF7B8FD00211320FFF7B4FD142020
:1024B000FFF766FD41F2B0711020FFF7ACFD40F26E
:1024C00037111120FFF7A7FD0520FFF759FD40F256
:1024D00039111220FFF79FFD0520FFF751FD4FF442
:1024E000E8511320FFF797FD13212920FFF793FDF3
:1024F0000520FFF745FD00212020FFF78CFD00E0BF
:1025000092E000212120FFF786FD06213020FFF711
:1025100082FD40F201113120FFF77DFD03213220C1
:10252000FFF779FD4FF483713520FFF774FD40F616
:1025300002313620FFF76FFD40F202313720FFF7FE
:102540006AFD40F207713820FFF765FD0721392049
:10255000FFF761FD4FF4C0613C20FFF75CFD40F2E6
:102560000B213D20FFF757FD00215020FFF753FDC1
:10257000EF215120FFF74FFD00215220FFF74BFDC7
:1025800040F23F115320FFF746FD4FF427416020F2
:10259000FFF741FD01216120FFF73DFD00216A2089
:1025A000FFF739FD00218020FFF735FD0021812054
:1025B000FFF731FD00218220FFF72DFD0021832050
:1025C000FFF729FD00218420FFF725FD002185204C
:1025D000FFF721FD10219020FFF71DFD0021922023
:1025E000FFF719FD03219320FFF715FD4FF48871C4
:1025F0009520FFF710FD00219720FFF70CFD00212B
:102600009820FFF708FD41F208010320FFF703FDC2
:1026100040F273110720FFF7FEFC0520FFF7B0FC26
:102620000520FFF7ADFC98E0F8480088A0F50941C7
:1026300099397ED101210020FFF7EDFC47F63F31AB
:102640000120FFF7E8FC4FF4C0610220FFF7E3FC34
:1026500007210C20FFF7DFFC06210D20FFF7DBFC34
:102660004FF448510E20FFF7D6FCBB211E20FFF788
:10267000D2FC46F664210320FFF7CDFC00210F2099
:10268000FFF7C9FC4FF46F414420FFF7C4FC002161
:102690004520FFF7C0FC40F23F114620FFF7BBFC8E
:1026A00000213020FFF7B7FC40F206713120FFF720
:1026B000B2FC40F206213220FFF7ADFC4FF440712E
:1026C0003320FFF7A8FC02213420FFF7A4FC0021EF
:1026D0003520FFF7A0FC40F207713620FFF79BFC86
:1026E0004FF400713720FFF796FC40F608113A20AE
:1026F000FFF791FC40F60D713B20FFF78CFC0621A3
:102700002820FFF788FC41F2EB212F20FFF783FC04
:102710004FF4E0412620FFF77EFC4BF2E30120203E
:10272000FFF779FC44212720FFF775FC47F6456148
:1027300000E012E02E20FFF76EFC00211020FFF7D2
:102740006AFC0820FFF71CFC46F678011120FFF711
:1027500062FC33210720FFF75EFC10BD70B5054613
:10276000002600210846FFF75BFCFFF74FFC00BF87
:102770000AE0002403E04FF0D8404580641CB4F523
:10278000A07FF8D300BF761CF02EF2D370BD2DE9E8
:10279000F04704460D4616461F46DDF820A04FF0D0
:1027A000000831462846FFF73BFCFFF72FFC00BF2F
:1027B0000DE04FF0000904E04FF0D840448009F1EB
:1027C0000109B945F8D34FF0000908F10108D045D7
:1027D000EFD3BDE8F087F0B504460D4616461F4618
:1027E00021465020FFF717FCA1195120FFF713FCD9
:1027F00029465220FFF70FFCE81981B25320FFF75A
:102800000AFC29462046FFF70BFCF0BD2DE9FF4FDF
:1028100081B080460E46174699464FF0100AD346BF
:1028200008FB0AF07A4901EB40000090002526E001
:10283000002420E0E21704EB5272D21002EB4503B1
:10284000009AD25CE31704EB5373DB10A4EBC303D1
:102850009A4012F0800F06D03A1991B270194A4688
:10286000FFF7FFFB05E03A1991B270190E9AFFF7D6
:10287000F8FB601CC4B25C45DCDB681CC5B2554586
:10288000D6DB05B0BDE8F08F2DE9F04105460E46D8
:1028900017469846002406E0301942463946FFF7AD
:1028A000E0FB601CC4B2AC42F6DBBDE8F0812DE970
:1028B000F04105460E4617469846002407E03819B1
:1028C00081B242463046FFF7CCFB601CC4B2AC423A
:1028D000F5DBBDE8F08170B504460D46164632467C
:1028E00029462046FFF7BDFB70BD2DE9F0470546A0
:1028F0000E46174698460024A7EB0509A8EB060AE2
:1029000000BF08E02819C1B2002332460AF0FF00D8
:10291000FFF7CDFF641C052CF4DB002408E0381B16
:10292000C1B2002332460AF0FF00FFF7C0FF641C6B
:10293000052CF4DB002408E0301982B2002329467C
:1029400009F0FF00FFF7A0FF641C052CF4DB002456
:1029500009E0A8EB040082B20023294609F0FF0039
:10296000FFF792FF641C052CF3DBBDE8F0872DE92F
:10297000F04F05460E4690469946099F0024A8EB65
:10298000050AA9EB060B00BF08E02819C1B2002315
:1029900032460BF0FF00FFF78AFF641CBC42F4DBF9
:1029A000002409E0A8EB0400C1B2002332460BF07A
:1029B000FF00FFF77CFF641CBC42F3DB002408E04F
:1029C000301982B2002329460AF0FF00FFF75CFFAE
:1029D000641CBC42F4DB002409E0A9EB040082B2D1
:1029E000002329460AF0FF00FFF74EFF641CBC429B
:1029F000F3DBBDE8F08F2DE9F84705460E46174694
:102A00009846DDE9099A002411E000000C07002037
:102A10006800002008EB04118AB22919C8B24B469D
:102A20003946CDF800A0FFF7F1FE601CC4B2B442F5
:102A3000F0DBBDE8F8872DE9FF4F81B080460E46F8
:102A4000174699464FF0100AD34608FB0AF0F8499A
:102A500001EB40000090002526E0002420E0E21772
:102A600004EB5272D21002EB4503009AD25CE317DA
:102A700004EB5373DB10A4EBC3039A4012F0800FF6
:102A800006D03A1991B270194A46FFF7EAFA05E002
:102A90003A1991B270190E9AFFF7E3FA601CC4B2AA
:102AA0005C45DCDB681CC5B25545D6DB05B0BDE82E
:102AB000F08F2DE9F84705460E4617469846DDE9A2
:102AC000099A00240CE008EB04118AB22919C8B253
:102AD0004B463946CDF800A0FFF7ADFF601CC4B2ED
:102AE000B442F0DBBDE8F8872DE9FC4105460E460F
:102AF0001446642095FBF0F795FBF0F100FB1150B4
:102B00000A2190FBF1F84FF6FF730022A4F13C007C
:102B1000CDE9002383B2324604210320FFF76BFF87
:102B20004FF6FF730022CDE90023234632460121F0
:102B3000F8B2FFF7BEFF4FF6FF73002204F10F005B
:102B4000CDE9002383B23246012108F0FF00FFF7F0
:102B5000B0FFBDE8FC812DE9F04F80468946144660
:102B60001D46DDF824A004FB05FB5746681E83B212
:102B7000601EC2B249464046FFF72DFE41F23801C1
:102B80000320FFF748FAFFF741FA002604E037F880
:102B9000020BFFF737FA761C5E45F8D341F21801B5
:102BA0000320FFF738FA40F23F13EF2200210846D6
:102BB000FFF711FEBDE8F08F38B504460D469D4B7A
:102BC00000933C23372229462046FFF7C4FF38BD37
:102BD00010B5044641F230010320FFF71CFA092C1E
:102BE00033D2DFE804F0050A0F14191E23282D0044
:102BF0001D211C20FFF7E0FF27E073211C20FFF7B9
:102C0000DBFF22E0BE211C20FFF7D6FF1DE01D21C7
:102C10005520FFF7D1FF18E078215A20FFF7CCFFAD
:102C200013E0BE215A20FFF7C7FF0EE01D218C20C4
:102C3000FFF7C2FF09E078218C20FFF7BDFF04E019
:102C4000BE218C20FFF7B8FF00BF00BF10BD18B534
:102C5000044641F230010320FFF7DDF9092C57D279
:102C6000DFE804F0050E172029323B444D00724B7B
:102C700000933C2337221D211C20FFF76CFF47E007
:102C80006D4B00933C23372273211C20FFF763FF19
:102C90003EE0694B00933C233722BE211C20FFF706
:102CA0005AFF35E0644B00933C2337221D21552009
:102CB000FFF751FF2CE0604B00933C233722782133
:102CC0005A20FFF748FF23E05B4B00933C23372259
:102CD000BE215A20FFF73FFF1AE0574B00933C23D9
:102CE00037221D218C20FFF736FF11E0524B009355
:102CF0003C23372278218C20FFF72DFF08E04E4B34
:102D000000933C233722BE218C20FFF724FF00BF15
:102D100000BF18BD10B503460020092B63D2DFE8C1
:102D200003F0050F19242E38434D5700192906DBEF
:102D3000552904DC192A02DB642A00DC012052E058
:102D4000192906DB552904DC692A02DBB92A00DCD3
:102D5000012048E0192907DB552905DCBE2A03DBE1
:102D6000B2F5877F00DC01203DE05A2906DB962979
:102D700004DC192A02DB642A00DC012033E05A2932
:102D800006DB962904DC692A02DBB92A00DC012073
:102D900029E05A2907DB962905DCBE2A03DBB2F5B8
:102DA000877F00DC01201EE09B2906DBD22904DCA2
:102DB000192A02DB642A00DC012014E0962906DBD4
:102DC000D22904DC692A02DBB92A00DC01200AE0EE
:102DD000962907DBD22905DCBE2A03DBB2F5877F03
:102DE00000DC012000BF00BF10BD7CB504460A2CEA
:102DF00000DA00250A2094FBF0F594FBF0F100FBCB
:102E000011464FF6FF730022CDE900235A23D22248
:102E10000121E8B2FFF74DFE4FF6FF730022CDE926
:102E200000236923D2220121F0B2FFF742FE7CBDCC
:102E3000C8050020C65900088E7300080CB54FF66F
:102E4000FF70FFF78BFC02230093A62373227821E7
:102E50005520FFF78CFD02230093A623A52278219D
:102E60008720FFF784FD4FF6FF730022CDE9002392
:102E700080235D2202210720FFF7BDFD4FF6FF737F
:102E80000022CDE9002380238E2202210920FFF7B2
:102E9000B2FD0CBD7CB504464FF6FF730022CDE9B0
:102EA000002382233F2204212720FFF7A4FD4FF6B1
:102EB000FF730022CDE9002387235F220321242012
:102EC000FFF799FD0A2C00DA00250A2094FBF0F5A3
:102ED00094FBF0F100FB11464FF6FF730022CDE9A1
:102EE0000023AA235F220121E8B2FFF7E2FD4FF69B
:102EF000FF730022CDE90023B9235F220121F0B244
:102F0000FFF7D7FD7CBD0CB54FF6FF730022CDE96E
:102F1000002382233F2204210B20FFF76CFD4FF694
:102F2000FF730022CDE9002341235F220B210F20F4
:102F3000FFF761FD4FF6FF730022CDE900233D232B
:102F400078220C211820FFF756FD0CBD22204FF0EF
:102F5000D841088008464088704710B500211020ED
:102F6000FFF759F800211120FFF755F80021122032
:102F7000FFF751F800211320FFF74DF81420FEF75A
:102F8000FFFF41F2B0711020FFF745F840F2371112
:102F90001120FFF740F80520FEF7F2FF40F239114B
:102FA0001220FFF738F80520FEF7EAFF4FF4E8514A
:102FB0001320FFF730F813212920FFF72CF8052004
:102FC000FEF7DEFF40F273110720FFF724F810BD73
:102FD00000B540F273110720FFF71DF800BD00B5E2
:102FE00000210720FFF717F800BD00000649074A37
:102FF0000868504343F239021044086040087047A3
:103000000149086070470000100700206D4EC6415E
:103010002DE9FE4F074681EA0300C00F0E460190DE
:1030200021F0004123F00044B81AA14105D23846EE
:10303000314617461E460B46024623F00040104319
:1030400004D13846314603B0BDE8F08F350DC5F3E5
:103050000A00C3F30A510290401A0090402867DA30
:10306000C3F3130040F4801B0198924620B1002363
:10307000D2EB030A63EB0B0B00985946C0F14002F8
:10308000504600F09DF880460C4650465946009A3E
:1030900000F0B5F8C0197141EF1785EA11533B43B1
:1030A0003FD0019A4AB3009A012A11DC0022801A0B
:1030B00061EB05514FF0004303EA0555CDE90025CA
:1030C000801841F580114246234600F0B7F8BAE770
:1030D0002E050025401B61EB0601401941F58012C9
:1030E000001852412818A6F5001343EB020140EAEC
:1030F000D47018EB0808644113E064084FEA3808FC
:103100004FF0000244EAC0744FEA0553801A61EBA5
:103110000301801841F5801149084FEA30008018FA
:1031200059414246234603B0BDE8F04F00F079B85C
:103130000198012240000023D0EB020263EBE07310
:1031400001984FEAE074381A66EB0401EBE783F06C
:1031500000435DE781F000415AE770B5C1F30A52C0
:1031600001F000450024C1F3130140F2FF3341F4A4
:1031700080119A4201DA002070BD40F233439A4236
:10318000A2F2334203DC524200F029F800E0904002
:103190002C43F1D0404270BD30B5002904DB4FF024
:1031A0000044404264EB0101002B04DB4FF000447B
:1031B000524264EB03038B4208BF824230BD0000E1
:1031C000202A04DB203A00FA02F1002070479140E7
:1031D000C2F1200320FA03F3194390407047202ADC
:1031E00004DB203A21FA02F00021704721FA02F3B1
:1031F000D040C2F120029140084319467047202A6E
:1032000006DBCB17203A41FA02F043EAE07306E00E
:1032100041FA02F3D040C2F120029140084319461E
:10322000704710B5002B08DA401C41F100019218DC
:103230005B411A4301D120F0010010BD2DE9FF4D83
:10324000934611B1B1FA81F202E0B0FA80F2203275
:103250009246FFF7B5FF039A0746884640EA0B00FF
:1032600011435B46084304D13846414604B0BDE8EB
:10327000F08D114653EA020016D0CAF140025846BA
:10328000FFF7ADFF04460D464FF001065846524683
:103290000399FFF795FF084300D10026344345EA20
:1032A000E675274345EA08080E984FF00005A0EBA5
:1032B0000A014FEAD7200A314FEA47532A4640EA2B
:1032C00048504FEAD82402D500200146CEE72818FE
:1032D00044EB0151DDE90C45001904B06941BDE83A
:1032E000F04D9EE7064C074D06E0E06840F0010314
:1032F00094E8070098471034AC42F6D3FCF71CFF63
:10330000D08D0008F08D000870B58C1810F8015BA6
:1033100015F0030201D110F8012B2B1106D110F882
:10332000013B03E010F8016B01F8016B521EF9D16B
:10333000B3B110F8012B05F00C058A1A0C2D04D03E
:10334000A2EB851203F1020308E010F8015BA2EB87
:103350000522F7E712F8015B01F8015B5B1EF9D566
:10336000A142D3D3002070BD02E008C8121F08C1DB
:10337000002AFAD170477047002001E001C1121FF6
:10338000002AFBD170470000000000000000000090
:10339000000000000000000000000000000000002D
:1033A000000000000000000000000000000000001D
:1033B0000000000000000000800180018001800109
:1033C00080018001800180018001800180018001F5
:1033D000800100000000800180010000000000006A
:1033E00000000000000000000000CC00CC00CC0079
:1033F000CC00CC00CC000000000000000000000069
:1034000000000000000000000000000000000000BC
:1034100000000000000000000000000000000000AC
:103420000000600C600C600C30063006FE1FFE1FB2
:10343000300638071803FE1FFE1F180318038C01FF
:103440008C018C01000000008000E003F80F9C0E4E
:103450008C1C8C188C009800F801E007800E801CF2
:103460008C188C189C18B80CF00FE00380008000BA
:103470000000000000000000000000000E181B0CFF
:10348000110C11061106110311039B018E01C038A6
:10349000C06C60446044304430441844186C0C38AC
:1034A0000000000000000000E001F00338071806EB
:1034B00018063003F001F000F8009C310E33061EB0
:1034C000061C061C063FFC73F021000000000000F3
:1034D000000000000000000000000C000C000C00C8
:1034E0000C000C000C0000000000000000000000B8
:1034F00000000000000000000000000000000000CC
:103500000000000000000000000200038001C00075
:10351000C00060006000300030003000300030003B
:1035200030003000300060006000C000C00080014A
:10353000000300020000000020006000C0008001C5
:1035400080010003000300060006000600060006D6
:103550000006000600060003000380018001C00091
:1035600060002000000000000000000000000000DB
:103570000000C000C000D806F807E001300338079B
:10358000000000000000000000000000000000003B
:10359000000000000000000000000000000000002B
:1035A000000080018001800180018001FC3FFC3F20
:1035B0008001800180018001800100000000000086
:1035C00000000000000000000000000000000000FB
:1035D00000000000000000000000000000000000EB
:1035E00000000000000000008001800100010001D7
:1035F000800000000000000000000000000000004B
:103600000000000000000000000000000000E007D3
:10361000E0070000000000000000000000000000C3
:10362000000000000000000000000000000000009A
:10363000000000000000000000000000000000008A
:103640000000000000000000C000C00000000000FA
:103650000000000000000000000C000C0006000646
:103660000006000300030003800380018001800145
:10367000C000C000C000600060000000000000004A
:10368000000000000000000000000000000000003A
:103690000000800180010000000000000000000028
:1036A0000000000000008001800100000000000018
:1036B000000000000000000000000000000000000A
:1036C00000008001800100000000000000000000F8
:1036D0000000000000008001800100010001800066
:1036E00000000000000000000000000000000000DA
:1036F0000000000000000010001C800FE003F80034
:103700001800F800E003800F001C0010000000000B
:1037100000000000000000000000000000000000A9
:10372000000000000000F81F000000000000F81F6B
:103730000000000000000000000000000000000089
:103740000000000000000000000000000000000079
:1037500000000000000008003800F001C007001F52
:103760000018001FC007F00138000800000000002A
:103770000000000000000000E003F80F180C0C1817
:103780000C180018000C000600038001C000C000E7
:10379000C00000000000C000C000000000000000E9
:1037A00000000000000000000000E00718180420DE
:1037B000C229224A11440944094409440922111327
:1037C000E20C024004201818E0070000000000008E
:1037D000000000000000000080038003C006C00657
:1037E000C006600C600C301830183018F83FF83FF5
:1037F0001C700C600C6006C006C0000000000000D9
:103800000000000000000000FC03FC0F0C0C0C1872
:103810000C180C180C0CFC07FC0F0C180C300C309E
:103820000C300C300C18FC1FFC07000000000000DE
:103830000000000000000000C007F01F38381C30F6
:103840000C70066006000600060006000600060072
:1038500006600C701C30F01FE00700000000000044
:103860000000000000000000FE03FE0F060E061818
:1038700006180630063006300630063006300630B0
:1038800006180618060EFE0FFE03000000000000DA
:103890000000000000000000FC3FFC3F0C000C009A
:1038A0000C000C000C00FC1FFC1F0C000C000C009A
:1038B0000C000C000C00FC3FFC3F0000000000006E
:1038C0000000000000000000F83FF83F180018005A
:1038D000180018001800F81FF81F1800180018002A
:1038E0001800180018001800180000000000000060
:1038F0000000000000000000E00FF83F3C780E6080
:1039000006E007C00300030003FE03FE03C007C078
:1039100006C00EC03CF0F83FE00F000000000000C1
:1039200000000000000000000C300C300C300C30A7
:103930000C300C300C30FC3FFC3F0C300C300C30A9
:103940000C300C300C300C300C300000000000004B
:103950000000000000000000800180018001800163
:10396000800180018001800180018001800180014F
:1039700080018001800180018001000000000000C2
:10398000000000000000000000060006000600061F
:1039900000060006000600060006000600060006F7
:1039A000180618063807F003E001000000000000C8
:1039B000000000000000000006300618060C060695
:1039C00006038601C60066007600DE008E0106034F
:1039D0000606060C0618063006600000000000000F
:1039E0000000000000000000180018001800180077
:1039F0001800180018001800180018001800180007
:103A0000180018001800F81FF81F00000000000040
:103A100000000000000000000EE01EF01EF01EF08E
:103A200036D836D836D836D866CC66CC66CCC6C63C
:103A3000C6C6C6C6C6C686C386C300000000000050
:103A400000000000000000000C301C303C303C3016
:103A50006C306C30CC30CC308C310C330C330C36B9
:103A60000C360C3C0C3C0C380C3000000000000004
:103A70000000000000000000E007F81F1C380E7076
:103A8000066003C003C003C003C003C003C003C07B
:103A900006600E701C38F81FE007000000000000F0
:103AA0000000000000000000FC0FFC1F0C380C3070
:103AB0000C300C300C300C18FC1FFC070C000C00F8
:103AC0000C000C000C000C000C00000000000000BA
:103AD0000000000000000000E007F81F1C380E7016
:103AE000066003E003C003C003C003C003C007E0D7
:103AF00006630E3F1C3CF83FE0F700C000000000EA
:103B00000000000000000000FE0FFE1F0638063017
:103B1000063006300638FE1FFE0706030606060CB2
:103B20000618061806300630066000000000000087
:103B30000000000000000000E003F80F1C0C0C184F
:103B40000C180C001C00F803E00F001E00380630B3
:103B500006300E301C1CF80FE007000000000000CB
:103B60000000000000000000FE7FFE7F8001800159
:103B7000800180018001800180018001800180013D
:103B800080018001800180018001000000000000B0
:103B900000000000000000000C300C300C300C3035
:103BA0000C300C300C300C300C300C300C300C3035
:103BB0000C300C301818F81FE0070000000000005F
:103BC00000000000000000000360063006300630F0
:103BD0000C180C180C18180C180C380E300630067F
:103BE000700760036003C001C00100000000000016
:103BF00000000000000000000360C361C361C361F6
:103C00006633663366336633663366336C1B6C1B10
:103C10006C1B2C1A3C1E380E380E000000000000F1
:103C200000000000000000000FE00C701830301899
:103C3000700C600EC00780038003C003E006700CA8
:103C4000301C18180C300E6007E000000000000067
:103C5000000000000000000003C006600C301C38AB
:103C60003818300C6006E007C00380018001800135
:103C700080018001800180018001000000000000BF
:103C80000000000000000000FC7FFC7F00600030AE
:103C90000018000C000600038001C0006000300026
:103CA00018000C000600FE7FFE7F000000000000F0
:103CB0000000000000000000E003E003600060007E
:103CC00060006000600060006000600060006000F4
:103CD00060006000600060006000600060006000E4
:103CE000E003E003000000003000300060006000EE
:103CF0006000C000C000C000C001800180018001E0
:103D0000000300030003000600060000000000009E
:103D10000000000000000000E003E00300030003D7
:103D2000000300030003000300030003000300037B
:103D3000000300030003000300030003000300036B
:103D4000E003E003000000000000C001C0016003C8
:103D50006003600330063006180C180C00000000E9
:103D60000000000000000000000000000000000053
:103D70000000000000000000000000000000000043
:103D80000000000000000000000000000000000033
:103D90000000000000000000FFFFFFFF0000000027
:103DA00000000000000000000C000C000C000C00E3
:103DB0000C000C00000000000000000000000000EB
:103DC00000000000000000000000000000000000F3
:103DD00000000000000000000000000000000000E3
:103DE0000000F003F8071C0C0C0C000FF00FF80C8F
:103DF0000C0C0C0C1C0FF80FF01800000000000059
:103E00000000000000000000180018001800180052
:103E10001800D803F80F380C1818181818181818A4
:103E200018181818380CF80FD8030000000000000C
:103E30000000000000000000000000000000000082
:103E40000000C003F007300E180C1800180018000E
:103E50001800180C300EF007C0030000000000002E
:103E600000000000000000000018001800180018F2
:103E70000018C01BF01F301C181818181818181834
:103E800018181818301CF01FC01B0000000000009C
:103E90000000000000000000000000000000000022
:103EA0000000C003F00F300C1818F81FF81F18009E
:103EB00018003818301CF00FC00700000000000088
:103EC0000000000000000000800FC00FC000C00014
:103ED000C000F007F007C000C000C000C000C00074
:103EE000C000C000C000C000C00000000000000012
:103EF00000000000000000000000000000000000C2
:103F00000000E00DF80F180E0C0C0C0C0C0C0C0C37
:103F10000C0C0C0C180EF80FE00D000C0C0C1C0611
:103F2000F807F00100000000180018001800180041
:103F30001800D807F80F381C18181818181818186F
:103F40001818181818181818181800000000000081
:103F50000000000000000000C000C00000000000E1
:103F60000000C000C000C000C000C000C000C00011
:103F7000C000C000C000C000C00000000000000081
:103F80000000000000000000C000C00000000000B1
:103F90000000C000C000C000C000C000C000C000E1
:103FA000C000C000C000C000C000C000C000C00011
:103FB000F8007800000000000C000C000C000C0061
:103FC0000C000C0C0C060C038C01CC006C00FC00EB
:103FD0009C018C030C030C060C0C0000000000007C
:103FE0000000000000000000C000C000C000C000D1
:103FF000C000C000C000C000C000C000C000C000C1
:10400000C000C000C000C000C000000000000000F0
:1040100000000000000000000000000000000000A0
:1040200000007C3CFF7EC7E383C183C183C183C1A1
:1040300083C183C183C183C183C10000000000002C
:104040000000000000000000000000000000000070
:1040500000009807F80F381C1818181818181818A6
:104060001818181818181818181800000000000060
:104070000000000000000000000000000000000040
:104080000000C003F00F300C181818181818181872
:1040900018181818300CF00FC003000000000000C2
:1040A0000000000000000000000000000000000010
:1040B0000000D803F80F380C18181818181818181A
:1040C00018181818380CF80FD80318001800180022
:1040D00018001800000000000000000000000000B0
:1040E0000000C01BF01F301C1818181818181818DA
:1040F00018181818301CF01FC01B001800180018E2
:10410000001800180000000000000000000000007F
:104110000000B007F00370003000300030003000C5
:10412000300030003000300030000000000000009F
:10413000000000000000000000000000000000007F
:104140000000E003F003380E180C3800F003C0073D
:10415000000C180C380EF007E0030000000000000F
:10416000000000000000000000008000C000C0004F
:10417000C000F007F007C000C000C000C000C000D1
:10418000C000C000C000C0078007000000000000A1
:10419000000000000000000000000000000000001F
:1041A00000001818181818181818181818181818BF
:1041B00018181818381CF01FE01900000000000043
:1041C00000000000000000000000000000000000EF
:1041D00000000C18180C180C180C300630063006AD
:1041E000600360036003C001C00100000000000024
:1041F00000000000000000000000000000000000BF
:104200000000C141C141C3616363636363633636C8
:10421000363636361C1C1C1C1C1C0000000000001E
:10422000000000000000000000000000000000008E
:1042300000001C38381C300C60066003600360030B
:1042400060036006300C381C1C38000000000000C1
:10425000000000000000000000000000000000005E
:1042600000001830301830187018600C600CE00C2A
:10427000C006C00680038003800380018001C00166
:10428000F0007000000000000000000000000000CE
:104290000000FC1FFC1F000C000600038001C00092
:1042A000600030001800FC1FFC1F00000000000030
:1042B000000000000000000000038001C000C000FA
:1042C000C000C000C000C00060006000300060009E
:1042D0004000C000C000C000C000C000C00080019D
:1042E00000030000000000008001800180018001C7
:1042F00080018001800180018001800180018001B6
:1043000080018001800180018001800180018001A5
:1043100080018001000000006000C000C001800139
:10432000800180018001800100030003000600037A
:104330000001800180018001800180018001C000B6
:10434000600000000000000000000000000000000D
:10435000000000000000F010F81F080F000000002F
:10436000000000000000000000000000000000004D
:10437000000000000000FF0FFF0FFF0FFF0FFF0FF7
:10438000FF0FFF0FFF0FFF0FFF0FFF0FFF0FFF0FBD
:10439000FF0FFF0FFF0FFF0FFF0FFF0FFF0FFF0FAD
:1043A000FF0FFF0FFF0FFF0FFF0FFF0FFF0FFF0F9D
:1043B000FF0FFF0FFF0FFF0FFF0FFF0FFF0FFF0F8D
:1043C000FF0FFF0FFF0FFF0FFF0FFF0FFF0FFF0F7D
:1043D000FF0FFF0FFF0FFF0FFF0FFF0FFF0FFF0F6D
:1043E000FF0FFF0FFF0FFF0FFF0FFF0FFF0FFF0F5D
:1043F000FF0FFF0FFF0FFF0FFF0FFF0FFF0FFF0F4D
:10440000FF0FFF0FFF0FFF0FFF0FFF0FFF0FFF0F3C
:10441000FF0FFF0FFF0FFF0FFF0FFF0FFF0FFF0F2C
:10442000FF0FFF0FFF0FFF0FFF0FFF0FFF0FFF0F1C
:10443000FF0FFF0FFF0FFF0FFF0FFF0FFF0FFF0F0C
:10444000FF0FFF0FFF0FFF0FFF0FFF0FFF0FFF0FFC
:10445000FF0FFF0FFF0FFF0FFF0FFF0FFF0FFF0FEC
:10446000FF0FFF0FFF0FFF0FEE0ECC0CCC0CCC0C90
:10447000FF0FFF0FFF0FCC0CDD0DFF0FFF0FEE0E38
:10448000CC0CCC0CEE0EFF0FFF0FDD0DCC0CCC0CCA
:10449000CC0CCC0CCC0CEE0EFF0FFF0FFF0FFF0F60
:1044A000FF0FFF0FFF0FFF0FFF0FFF0FFF0FFF0F9C
:1044B000FF0FFF0FFF0FFF0FFF0FFF0FFF0FFF0F8C
:1044C000FF0FFF0FFF0FFF0FEE0EDD0DFF0F770742
:1044D000000000000000AA0ABB0BBB0B0000220278
:1044E000FF0FFF0F9909000000007707BB0BBB0B04
:1044F0001101000000000000000000005505FF0F42
:10450000FF0FFF0FFF0FFF0FFF0FFF0FFF0FFF0F3B
:10451000FF0FFF0FFF0FFF0FFF0FDD0DAA0AAA0A03
:10452000EE0EFF0FFF0FFF0FFF0FFF0FEE0E8808BD
:104530009909FF0F7707000000000000000000004D
:10454000000000001101AA0AAA0A66060000000085
:104550000000330311010000000000000000000013
:1045600000003303CC0CFF0FFF0FCC0CEE0EFF0F3F
:10457000FF0FFF0FFF0FFF0FFF0FFF0FFF0FDD0DEF
:10458000440400000000CC0CFF0FFF0F99099909AB
:10459000990988089909FF0FFF0F77070000440465
:1045A000110155050000000000000000000000009F
:1045B000000000000000000066061101000000007D
:1045C0000000000000000000000044049909DD0D17
:1045D0009909DD0DFF0FFF0FFF0FFF0FFF0FFF0FFB
:1045E000FF0FFF0F88080000000000006606EE0EB7
:1045F000FF0F77070000000011018808BB0BFF0FB9
:1046000077074404DD0D9909EE0E1101000000004A
:10461000660600000000000000000000000000002E
:10462000000000000000000000000000000000008A
:1046300000003303CC0CFF0FFF0FFF0FFF0FFF0F26
:10464000770777079909DD0D77073303000000002E
:1046500000000000DD0DFF0F7707000000000000E4
:104660000000220277078808DD0DFF0FFF0FFF0F04
:10467000990900009909DD0D00000000000000000C
:10468000000055052202660611010000000000002E
:104690000000000000003303CC0CFF0FFF0FFF0FE2
:1046A000FF0FFF0FFF0F00000000110177076606E4
:1046B0000000000066069909220255056606000002
:1046C0000000000022026606000000008808FF0FBC
:1046D000FF0F88086606FF0F0000FF0FDD0D0000CA
:1046E0000000000044049909DD0DBB0B6606990922
:1046F00099099909000000000000000022026606E6
:10470000660666066606EE0EFF0FFF0F000000004D
:1047100000001101330300005505EE0EFF0FCC0C15
:10472000AA0A0000000000001101990933030000EB
:104730005505DD0DFF0FFF0FCC0CAA0AFF0F00007F
:104740005505440400003303AA0ADD0DFF0FFF0FD7
:10475000FF0FBB0BFF0FFF0F440400000000000021
:104760003303AA0A5505000000008808FF0FFF0F59
:1047700055050000000000000000000000002202BB
:10478000BB0BFF0FFF0FFF0FCC0C00000000000061
:104790005505CC0C77071101AA0AFF0FFF0FFF0F79
:1047A000FF0FFF0F0000000000003303DD0DFF0FBF
:1047B000FF0FFF0FFF0FFF0FFF0FFF0F440400005D
:1047C000000000000000110133031101000000008F
:1047D000BB0BFF0FFF0FCC0CCC0C1101DD0D9909A9
:1047E0000000000000009909FF0FFF0FFF0FFF0FEF
:1047F00000000000000000002202110100008808F3
:10480000FF0FFF0FFF0FFF0F3303DD0DDD0DBB0BA0
:1048100000006606FF0FFF0FFF0FFF0FFF0FFF0FD8
:104820004404000000001101AA0A0000000000007A
:104830000000000000001101DD0DFF0FFF0FFF0F52
:10484000CC0C4404FF0F9909000000000000BB0BD2
:10485000FF0FFF0FFF0FEE0E00002202EE0EEE0E16
:10486000EE0E770700001101110111011101DD0D9C
:10487000FF0FFF0FFF0FEE0EAA0A11011101110128
:10488000110111011101CC0CEE0E0000000011010C
:104890003303EE0EEE0E770700000000000011015A
:1048A000EE0EFF0FFF0FDD0D00004404FF0FFF0FA2
:1048B000FF0F66060000CC0CFF0FFF0FFF0F00007C
:1048C0002202FF0FFF0FFF0FFF0FFF0FFF0FFF0F62
:1048D000FF0FFF0FFF0FFF0FFF0FFF0FFF0FFF0F68
:1048E000FF0FFF0FFF0FFF0FFF0FFF0FFF0FFF0F58
:1048F000FF0F00002202FF0FAA0A000000000000C4
:10490000000000000000EE0EFF0FFF0FFF0FCC0CA9
:10491000000000006606FF0F550500000000CC0CEB
:10492000FF0F00001101FF0FFF0FFF0FFF0FFF0F21
:10493000FF0FFF0FFF0FFF0FFF0FFF0FFF0FFF0F07
:10494000FF0FFF0FFF0FFF0FFF0FFF0FFF0FFF0FF7
:10495000FF0FFF0FFF0FFF0FEE0E00000000000023
:10496000000000000000000000000000EE0EFF0F3D
:10497000FF0FFF0FFF0FFF0FAA0A22020000000027
:1049800000000000110122022202FF0FFF0FFF0FA3
:10499000FF0FFF0FFF0FFF0FFF0FFF0FFF0FFF0FA7
:1049A000FF0FFF0FFF0FFF0FFF0FFF0FFF0FFF0F97
:1049B000FF0FFF0FFF0FFF0FFF0FFF0FFF0FFF0F87
:1049C000FF0FBB0B00000000000000000000110101
:1049D000DD0DFF0FFF0FFF0FFF0FFF0FFF0FFF0F8B
:1049E000FF0F7707000000000000DD0DFF0FFF0F35
:1049F000FF0FFF0FFF0FFF0FFF0FFF0FFF0FFF0F47
:104A0000FF0FFF0FFF0FFF0FFF0FFF0FFF0FFF0F36
:104A1000FF0FFF0FFF0FFF0FFF0FFF0FFF0FFF0F26
:104A2000FF0FFF0FFF0FFF0FBB0B11011101110152
:104A300033033303CC0CFF0FFF0FFF0FFF0FFF0FEC
:104A4000FF0FFF0FFF0FFF0F990911012202110144
:104A5000DD0DFF0FFF0FFF0FFF0FFF0FFF0FFF0F0A
:104A6000FF0FFF0FFF0FFF0FFF0FFF0FFF0FFF0FD6
:104A7000FF0FFF0FFF0FFF0FFF0FFF0FFF0FFF0FC6
:104A8000FF0FFF0FFF0FFF0FFF0FFF0FFF0FBB0BFE
:104A90005505BB0BAA0AFF0FFF0FFF0FFF0FFF0FFC
:104AA000FF0FFF0FFF0FFF0FFF0FFF0FFF0FFF0F96
:104AB0009909CC0C3303DD0DFF0FFF0FFF0FFF0F24
:104AC000FF0FFF0FFF0FFF0FFF0FFF0FFF0FFF0F76
:104AD000FF0FFF0FFF0FFF0FFF0FFF0FFF0FFF0F66
:104AE000FF0FFF0FFF0FFF0FFF0FFF0FFF0FFF0F56
:104AF000FF0FFF0FBB0B5505FF0FFF0FFF0FFF0F42
:104B0000FF0FFF0FFF0FFF0FFF0FFF0FFF0FFF0F35
:104B1000FF0FFF0FFF0FFF0FFF0F3303DD0DFF0F21
:104B2000FF0FFF0FFF0FFF0FFF0FFF0FFF0FFF0F15
:104B3000FF0FFF0FFF0FFF0FFF0FFF0FFF0FFF0F05
:104B4000FF0FFF0FFF0FFF0FFF0FFF0FFF0FFF0FF5
:104B5000FF0FFF0FFF0FFF0FFF0FBB0B5505FF0FE1
:104B6000FF0FFF0FFF0FFF0FFF0FFF0FFF0FFF0FD5
:104B7000FF0FFF0FFF0FFF0FFF0FFF0FFF0FFF0FC5
:104B80003303DD0DFF0FFF0FFF0FFF0FFF0FFF0FB1
:104B9000FF0FFF0FFF0FFF0FFF0FFF0FFF0FFF0FA5
:104BA000FF0FFF0FFF0FFF0FFF0FFF0FFF0FFF0F95
:104BB000FF0FFF0FFF0FFF0FFF0FFF0FFF0FFF0F85
:104BC000DD0DAA0AFF0FFF0FFF0FFF0FFF0FFF0FF3
:104BD000FF0FFF0FFF0FFF0FFF0FFF0FFF0FFF0F65
:104BE000FF0FFF0FFF0F3303DD0DFF0FFF0FFF0F51
:104BF000FF0FFF0FFF0FFF0FFF0FFF0FFF0FFF0F45
:104C0000FF0FFF0FFF0FFF0FFF0FFF0FFF0FFF0F34
:104C1000FF0FFF0FFF0FFF0FFF0FFF0FFF0FFF0F24
:104C2000FF0FFF0FFF0FFF0FFF0FFF0FFF0FFF0F14
:104C3000FF0FFF0FFF0FFF0FFF0FFF0FFF0FFF0F04
:104C4000FF0FFF0FFF0FFF0FFF0FFF0F3303DD0DF0
:104C5000FF0FFF0FFF0FFF0FFF0FFF0FFF0FFF0FE4
:104C6000FF0FFF0FFF0FFF0FFF0FFF0FFF0FFF0FD4
:104C7000FF0FFF0FFF0FFF0FFF0FFF0FFF0FFF0FC4
:104C8000FF0FFF0FFF0FFF0FFF0FFF0FFF0FFF0FB4
:104C9000FF0FFF0FFF0FFF0FFF0FFF0FFF0FFF0FA4
:104CA000FF0FFF0FFF0FFF0FFF0FFF0FFF0FFF0F94
:104CB000FF0F3303DD0DFF0FFF0FFF0FFF0FFF0F80
:104CC000FF0FFF0FFF0FFF0FFF0FFF0FFF0FFF0F74
:104CD000FF0FFF0FFF0FFF0FFF0FFF0FFF0FFF0F64
:104CE000FF0FFF0FFF0FFF0FFF0FFF0FFF0FFF0F54
:104CF000FF0FFF0FFF0FFF0FFF0FFF0FFF0FFF0F44
:104D0000FF0FFF0FFF0FFF0FFF0FFF0FFF0FFF0F33
:104D1000FF0FFF0FFF0FFF0F3303DD0DFF0FFF0F1F
:104D2000FF0FFF0FFF0FFF0FFF0FFF0FFF0FFF0F13
:104D3000FF0FFF0FFF0FFF0FFF0FFF0FFF0FFF0F03
:104D4000FF0FFF0FFF0FFF0FFF0FFF0FFF0FFF0FF3
:104D5000FF0FFF0FFF0FFF0FFF0FFF0FFF0FFF0FE3
:104D6000FF0FFF0FFF0FFF0FFF0FFF0FFF0FFF0FD3
:104D7000FF0FFF0FFF0FFF0FFF0FFF0FFF0F33039B
:104D8000DD0DFF0FFF0FFF0FFF0FFF0FFF0FFF0FD7
:104D9000FF0FFF0FFF0FFF0FFF0FFF0FFF0FFF0FA3
:104DA000FF0FFF0FFF0FFF0FFF0FFF0FFF0FFF0F93
:104DB000FF0FFF0FFF0FFF0FFF0FFF0FFF0FFF0F83
:104DC000FF0FFF0FFF0FFF0FFF0FFF0FFF0FFF0F73
:104DD000FF0FFF0FFF0FFF0FFF0FFF0FFF0FFF0F63
:104DE000FF0FFF0F3303DD0DFF0FFF0FFF0FFF0F4F
:104DF000FF0FFF0FFF0FFF0FFF0FFF0FFF0FFF0F43
:104E0000FF0FFF0FFF0FFF0FFF0FFF0FFF0FFF0F32
:104E1000FF0FFF0FFF0FFF0FFF0FFF0FFF0FFF0F22
:104E2000FF0FFF0FFF0FFF0FFF0FFF0FFF0FFF0F12
:104E3000FF0FFF0FFF0FFF0FFF0FFF0FFF0FFF0F02
:104E4000FF0FFF0FFF0FFF0FFF0F3303DD0DFF0FEE
:104E5000FF0FFF0FFF0FFF0FFF0FFF0FFF0FFF0FE2
:104E6000FF0FFF0FFF0FFF0FFF0FFF0FFF0FFF0FD2
:104E7000FF0FFF0FFF0FFF0FFF0FFF0FFF0FFF0FC2
:104E8000FF0FFF0FFF0FFF0FFF0FFF0FFF0FFF0FB2
:104E9000FF0FFF0FFF0FFF0FFF0FFF0FFF0FFF0FA2
:104EA000FF0FFF0FFF0FFF0FFF0FFF0FFF0FFF0F92
:104EB0003303DD0DFF0FFF0FFF0FFF0FFF0FFF0F7E
:104EC000FF0FFF0FFF0FFF0FFF0FFF0FFF0FFF0F72
:104ED000FF0FFF0FFF0FFF0FFF0FFF0FFF0FFF0F62
:104EE000FF0FFF0FFF0FFF0FFF0FFF0FFF0FFF0F52
:104EF000FF0FFF0FFF0FFF0FFF0FFF0FFF0FFF0F42
:104F0000FF0FFF0FFF0FFF0FFF0FFF0FFF0FFF0F31
:104F1000FF0FFF0FFF0F3303DD0DFF0FFF0FFF0F1D
:104F2000FF0FFF0FFF0FFF0FDD0DDD0D550500001B
:104F3000000000000000EE0EFF0FFF0FFF0FFF0F3D
:104F4000FF0FFF0FFF0FFF0FFF0FFF0FFF0FFF0FF1
:104F5000FF0FFF0FFF0FFF0FFF0FFF0FFF0FFF0FE1
:104F6000FF0FFF0FFF0FFF0FFF0FFF0FFF0FFF0FD1
:104F7000FF0FFF0FFF0FFF0FFF0FFF0F3303DD0DBD
:104F8000FF0FFF0FFF0FFF0FFF0FCC0C7707110173
:104F90003303330333033303000000000000DD0D4F
:104FA000FF0FFF0FFF0FFF0FFF0FFF0FFF0FFF0F91
:104FB000FF0FFF0FFF0FFF0FFF0FFF0FFF0FFF0F81
:104FC000FF0FFF0FFF0FFF0FFF0FFF0FFF0FFF0F71
:104FD000FF0FFF0FFF0FFF0FFF0FFF0FFF0FFF0F61
:104FE000FF0F3303DD0DFF0FFF0FFF0FFF0F9909B9
:104FF000440444049909FF0FFF0FFF0FFF0F5505ED
:10500000440444041101CC0CFF0FFF0FFF0FFF0FEE
:10501000FF0FFF0FFF0FFF0FFF0FFF0FFF0FFF0F20
:10502000FF0FFF0FFF0FFF0FFF0FFF0FFF0FFF0F10
:10503000FF0FFF0FFF0FFF0FFF0FFF0FFF0FFF0F00
:10504000FF0FFF0FFF0FFF0F3303DD0DFF0FFF0FEC
:10505000FF0F88083303FF0FFF0FFF0FFF0FFF0F36
:10506000FF0FFF0FFF0FFF0FFF0F00002202FF0FC8
:10507000FF0FFF0FFF0FFF0FFF0FFF0FFF0FFF0FC0
:10508000FF0FFF0FFF0FFF0FFF0FFF0FFF0FFF0FB0
:10509000FF0FFF0FFF0FFF0FFF0FFF0FFF0FFF0FA0
:1050A000FF0FFF0FFF0FFF0FFF0FFF0FFF0F330368
:1050B000DD0DFF0FFF0FEE0E11018808FF0FFF0F30
:1050C000FF0FFF0FFF0FFF0FFF0FFF0FFF0FFF0F70
:1050D00055052202FF0FFF0FFF0FFF0FFF0FFF0FFE
:1050E000FF0FFF0FFF0FFF0FFF0FFF0FFF0FFF0F50
:1050F000FF0FFF0FFF0FFF0FFF0FFF0FFF0FFF0F40
:10510000FF0FFF0FFF0FFF0FFF0FFF0FFF0FFF0F2F
:10511000FF0FFF0F3303DD0DFF0FFF0FEE0E220217
:10512000FF0FFF0FFF0FFF0FFF0FFF0FFF0FFF0F0F
:10513000FF0FFF0FFF0FEE0E2202FF0FFF0FFF0FFB
:10514000FF0FFF0FFF0FFF0FFF0FFF0FFF0FFF0FEF
:10515000FF0FFF0FFF0FFF0FFF0FFF0FFF0FFF0FDF
:10516000FF0FFF0FFF0FFF0FFF0FFF0FFF0FFF0FCF
:10517000FF0FFF0FFF0FFF0FFF0F3303DD0DFF0FBB
:10518000FF0FEE0E11019909FF0FFF0FFF0FFF0F29
:10519000FF0FFF0FFF0FFF0FFF0FFF0FEE0E22029B
:1051A000FF0FFF0FFF0FFF0FFF0FFF0FFF0FFF0F8F
:1051B000FF0FFF0FFF0FFF0FFF0FFF0FFF0FFF0F7F
:1051C000FF0FFF0FFF0FFF0FFF0FFF0FFF0FFF0F6F
:1051D000FF0FFF0FFF0FFF0FFF0FFF0FFF0FFF0F5F
:1051E0003303DD0DFF0FFF0FFF0F88083303FF0FA1
:1051F000FF0FFF0FFF0FFF0FFF0FFF0FFF0FFF0F3F
:10520000FF0F6606BB0BFF0FFF0FFF0FFF0FFF0F18
:10521000FF0FFF0FFF0FFF0FFF0FFF0FFF0FFF0F1E
:10522000FF0FFF0FFF0FFF0FFF0FFF0FFF0FFF0F0E
:10523000FF0FFF0FFF0FFF0FFF0FFF0FFF0FFF0FFE
:10524000FF0FFF0FFF0F3303DD0DFF0FFF0FFF0FEA
:10525000FF0F99098808FF0FFF0FFF0FFF0FFF0FC8
:10526000FF0FFF0F55055505BB0BFF0FFF0FFF0F7E
:10527000FF0FFF0FFF0FFF0FFF0FFF0FFF0FFF0FBE
:10528000FF0FFF0FFF0FFF0FFF0FFF0FFF0FFF0FAE
:10529000FF0FFF0FFF0FFF0FFF0FFF0FFF0FFF0F9E
:1052A000FF0FFF0FFF0FFF0FFF0FFF0F3303DD0D8A
:1052B000FF0FFF0FFF0FFF0FFF0FDD0DBB0B3303C2
:1052C00033033303330333033303BB0BCC0CFF0F24
:1052D000FF0FFF0FFF0FFF0FFF0FFF0FFF0FFF0F5E
:1052E000FF0FFF0FFF0FFF0FFF0FDD0D7707FF0F02
:1052F000FF0FFF0FFF0FFF0FFF0FFF0FFF0FFF0F3E
:10530000FF0FFF0FFF0FFF0FFF0FFF0FFF0FFF0F2D
:10531000FF0FEE0EFF0FFF0FFF0FFF0FFF0FFF0F2F
:10532000BB0B6606DD0DDD0DDD0DDD0DDD0DDD0DCF
:10533000FF0FFF0F22024404FF0FFF0FFF0FFF0FAD
:10534000FF0FFF0FFF0FFF0FFF0FFF0FFF0FFF0FED
:10535000CC0C4404FF0FFF0FFF0FFF0FFF0FFF0FD9
:10536000FF0FFF0FFF0FFF0FFF0FFF0FFF0FFF0FCD
:10537000FF0FFF0FFF0FFF0FFF0F3303EE0EFF0FA7
:10538000FF0FFF0FFF0FAA0A00008808FF0FFF0F93
:10539000FF0FFF0FFF0FFF0F110100002202FF0F91
:1053A000FF0FFF0FFF0FFF0FFF0FFF0FFF0FFF0F8D
:1053B000FF0FFF0FFF0FCC0C4404FF0FFF0FFF0F79
:1053C000FF0FFF0FFF0FFF0FFF0FFF0FFF0FFF0F6D
:1053D000FF0FFF0FFF0FFF0FFF0FFF0FFF0FFF0F5D
:1053E0002202EE0EFF0FFF0FFF0FCC0C000000009B
:1053F0007707FF0FFF0FFF0FFF0FFF0FFF0F0000DB
:10540000000000004404FF0FFF0FFF0FFF0FFF0F0E
:10541000FF0FFF0FFF0FFF0FFF0FFF0FCC0C440418
:10542000FF0FFF0FFF0FFF0FFF0FFF0FFF0FFF0F0C
:10543000FF0FFF0FFF0FFF0FFF0FFF0FFF0FFF0FFC
:10544000FF0FFF0FFF0F3303EE0EFF0FFF0FFF0FD6
:10545000CC0C000000007707FF0FFF0FFF0FFF0FBE
:10546000FF0FFF0F0000000000004404FF0FFF0FBC
:10547000FF0FFF0FFF0FFF0FFF0FFF0FFF0FFF0FBC
:10548000EE0E3303FF0FFF0FFF0FFF0FFF0FFF0F96
:10549000FF0FFF0FFF0FFF0FFF0FFF0FFF0FFF0F9C
:1054A000FF0FFF0FFF0FFF0FFF0FFF0FFF0FFF0F8C
:1054B000FF0FFF0FFF0FFF0FAA0A00007707FF0F74
:1054C000FF0FFF0FFF0FFF0FFF0F11010000110172
:1054D0004404FF0FFF0FFF0FFF0FFF0FFF0FFF0F22
:1054E000FF0FFF0FFF0FEE0E3303FF0FFF0FFF0F36
:1054F000FF0FFF0FFF0FFF0FFF0FFF0FFF0FFF0F3C
:10550000FF0FFF0FFF0FFF0FFF0FFF0FFF0FFF0F2B
:10551000FF0FFF0FFF0FFF0FFF0FFF0FFF0FBB0B63
:1055200033039909FF0FFF0FFF0FFF0FFF0FFF0F4F
:10553000FF0F1101BB0B6606FF0FFF0FFF0FFF0FE1
:10554000FF0FFF0FFF0FFF0FFF0FFF0FBB0B5505E7
:10555000FF0FFF0FFF0FFF0FFF0FFF0FFF0FFF0FDB
:10556000FF0FFF0FFF0FFF0FFF0FFF0FFF0FFF0FCB
:10557000FF0FFF0FFF0FFF0FFF0FFF0FFF0FFF0FBB
:10558000FF0FFF0FFF0FFF0FFF0FFF0FFF0FFF0FAB
:10559000FF0FFF0FFF0FFF0F44046606FF0FFF0F03
:1055A000FF0FFF0FFF0FFF0FFF0FFF0FFF0FFF0F8B
:1055B000FF0F5505FF0FFF0FFF0FFF0FFF0FFF0F2F
:1055C000FF0FFF0FFF0FFF0FFF0FFF0FFF0FFF0F6B
:1055D000FF0FFF0FFF0FFF0FFF0FFF0FFF0FFF0F5B
:1055E000FF0FFF0FFF0FFF0FFF0FFF0FFF0FFF0F4B
:1055F000FF0FFF0FFF0FFF0FFF0FFF0FFF0FFF0F3B
:10560000FF0FFF0FFF0FFF0FFF0FFF0FFF0FFF0F2A
:10561000FF0FFF0FFF0FFF0FFF0FFF0FFF0FFF0F1A
:10562000FF0FFF0FFF0FFF0FFF0FFF0FFF0FFF0F0A
:10563000FF0FFF0FFF0FFF0FFF0FFF0FFF0FFF0FFA
:10564000FF0FFF0FFF0FFF0FFF0FFF0FFF0FFF0FEA
:10565000FF0FFF0FFF0FFF0FFF0FFF0FFF0FFF0FDA
:10566000FF0FFF0FFF0FFF0FFF0FFF0FFF0FFF0FCA
:10567000FF0FFF0FFF0FFF0FFF0F9909FF0FFF0F26
:10568000FF0FFF0FFF0FFF0FFF0FFF0FFF0FFF0FAA
:10569000FF0FFF0FFF0FFF0FFF0FFF0FFF0FFF0F9A
:1056A000FF0FFF0FFF0FFF0FFF0FFF0FFF0FFF0F8A
:1056B000FF0FFF0FFF0FFF0FFF0FFF0FFF0FFF0F7A
:1056C000FF0FFF0FFF0FFF0FFF0FFF0FFF0FFF0F6A
:1056D000FF0FFF0FFF0FFF0FFF0FFF0FFF0FFF0F5A
:1056E0008808FF0FFF0FFF0FFF0FFF0FFF0FFF0FC8
:1056F000FF0FFF0FFF0FFF0FFF0FFF0FFF0FFF0F3A
:10570000FF0FFF0FFF0FFF0FFF0FFF0FFF0FFF0F29
:10571000FF0FFF0FFF0FFF0FFF0FFF0FFF0FFF0F19
:10572000FF0FFF0FFF0FFF0FFF0FFF0FFF0FFF0F09
:10573000FF0FFF0FFF0FFF0FFF0FFF0FFF0FFF0FF9
:10574000FF0FFF0FFF0FFF0FFF0FFF0FFF0FFF0FE9
:10575000FF0FFF0FFF0FFF0FFF0FFF0FFF0FFF0FD9
:10576000FF0FFF0FFF0FFF0FFF0FFF0FFF0FFF0FC9
:10577000FF0FFF0FFF0FFF0FFF0FFF0FFF0FFF0FB9
:10578000FF0FFF0FFF0FFF0FFF0FFF0FFF0FFF0FA9
:10579000FF0FFF0FFF0FFF0FFF0FFF0FFF0FFF0F99
:1057A000FF0FFF0FFF0FFF0FFF0FFF0FFF0FFF0F89
:1057B000FF0FFF0FFF0FFF0FFF0FFF0FFF0FFF0F79
:1057C000FF0FFF0FFF0FFF0FFF0FFF0FFF0FFF0F69
:1057D000FF0FFF0FFF0FFF0FFF0FFF0FFF0FFF0F59
:1057E000FF0FFF0FFF0FFF0FFF0FFF0FFF0FFF0F49
:1057F000FF0FFF0FFF0FFF0FFF0FFF0FFF0FFF0F39
:10580000FF0FFF0FFF0FAA0ABB0BFF0FFF0FFF0FCA
:10581000FF0FFF0FFF0FFF0FFF0FFF0FFF0FFF0F18
:10582000FF0FFF0FFF0FFF0FFF0FFF0FFF0FFF0F08
:10583000FF0FFF0FFF0FFF0FFF0FFF0FFF0FFF0FF8
:10584000FF0FFF0FFF0FFF0FFF0FFF0FFF0FFF0FE8
:10585000FF0FFF0FFF0FFF0FFF0FFF0FFF0FFF0FD8
:10586000FF0FFF0FFF0FFF0FFF0FFF0FEE0EEE0EEC
:10587000FF0FFF0FFF0FFF0FFF0FFF0FFF0FFF0FB8
:10588000FF0FFF0FFF0FFF0FFF0FFF0FFF0FFF0FA8
:10589000FF0FFF0FFF0FFF0FFF0FFF0FFF0FFF0F98
:1058A000FF0FFF0FFF0FFF0FFF0FFF0FFF0FFF0F88
:1058B000FF0FFF0FFF0FFF0FFF0FFF0FFF0FFF0F78
:1058C000FF0FFF0FFF0FFF0FFF0FFF0FFF0FFF0F68
:1058D000FF0FFF0FFF0FFF0FFF0FFF0FFF0FFF0F58
:1058E000FF0FFF0FFF0FFF0FFF0FFF0FFF0FFF0F48
:1058F000FF0FFF0FFF0FFF0FFF0FFF0FFF0FFF0F38
:10590000FF0FFF0FFF0FFF0FFF0FFF0FFF0FFF0F27
:10591000FF0FFF0FFF0FFF0FFF0FFF0FFF0FFF0F17
:10592000FF0FFF0FFF0FFF0FFF0FFF0FFF0FFF0F07
:10593000FF0FFF0FFF0FFF0FFF0FFF0FFF0FFF0FF7
:10594000FF0FFF0FFF0FFF0FFF0FFF0FFF0FFF0FE7
:10595000FF0FFF0FFF0FFF0FFF0FFF0FFF0FFF0FD7
:10596000FF0FFF0FFF0FFF0FFF0FFF0FFF0FFF0FC7
:10597000FF0FFF0FFF0FFF0FFF0FFF0FFF0FFF0FB7
:10598000FF0FFF0FFF0FFF0FFF0FFF0FFF0FFF0FA7
:10599000FF0FFF0FFF0FFF0FFF0FFF0FFF0FFF0F97
:1059A000FF0FFF0FFF0FFF0FFF0FFF0FFF0FFF0F87
:1059B000FF0FFF0FFF0FFF0FFF0FFF0FFF0FFF0F77
:1059C000FF0FFF0FFF0FFF0FFF0FFF0FFF0FFF0F67
:1059D000FF0FFF0FFF0F0000000000000000FF0F8F
:1059E000FF0FFF0FFF0FFF0FFF0FFF0FFF0FFF0F47
:1059F000FF0FFF0FFF0FFF0FFF0FFF0FFF0FFF0F37
:105A0000FF0FFF0FFF0FFF0FFF0FFF0FFF0FFF0F26
:105A1000FF0FFF0FFF0FFF0FFF0FFF0FFF0FFF0F16
:105A2000FF0FFF0FFF0FFF0FFF0FFF0FFF0FFF0F06
:105A3000FF0FFF0FFF0FFF0FFF0FFF0FFF0FFF0FF6
:105A4000FF0FFF0FFF0FFF0FFF0FFF0FFF0F0000F4
:105A50000000000000000000FF0FFF0FFF0FFF0F0E
:105A6000FF0FFF0FFF0FFF0FFF0FFF0FFF0FFF0FC6
:105A7000FF0FFF0FFF0FFF0FFF0FFF0FFF0FFF0FB6
:105A8000FF0FFF0FFF0FFF0FFF0FFF0FFF0FFF0FA6
:105A9000FF0FFF0FFF0FFF0FFF0FFF0FFF0FFF0F96
:105AA000FF0FFF0FFF0FFF0FFF0FFF0FFF0FFF0F86
:105AB000FF0FFF0FFF0FFF0FFF0FFF0FFF0FFF0F76
:105AC000FF0FFF0FFF0F0000000000000000FF0F9E
:105AD00000000000FF0FFF0FFF0FFF0FFF0FFF0F72
